{
  "_format": "hh-sol-artifact-1",
  "contractName": "GovernanceFacet",
  "sourceName": "src/facets/GovernanceFacet.sol",
  "abi": [
    {
      "inputs": [
        {
          "internalType": "address",
          "name": "token",
          "type": "address"
        }
      ],
      "name": "SafeERC20FailedOperation",
      "type": "error"
    },
    {
      "anonymous": false,
      "inputs": [
        {
          "indexed": true,
          "internalType": "string",
          "name": "requestId",
          "type": "string"
        },
        {
          "indexed": true,
          "internalType": "address",
          "name": "seller",
          "type": "address"
        },
        {
          "indexed": false,
          "internalType": "uint256",
          "name": "amount",
          "type": "uint256"
        }
      ],
      "name": "FundsReleased",
      "type": "event"
    },
    {
      "anonymous": false,
      "inputs": [
        {
          "indexed": true,
          "internalType": "string",
          "name": "requestId",
          "type": "string"
        }
      ],
      "name": "RequestApproved",
      "type": "event"
    },
    {
      "anonymous": false,
      "inputs": [
        {
          "indexed": true,
          "internalType": "string",
          "name": "requestId",
          "type": "string"
        },
        {
          "indexed": true,
          "internalType": "address",
          "name": "buyer",
          "type": "address"
        },
        {
          "indexed": true,
          "internalType": "address",
          "name": "seller",
          "type": "address"
        },
        {
          "indexed": false,
          "internalType": "uint256",
          "name": "amount",
          "type": "uint256"
        }
      ],
      "name": "RequestCreated",
      "type": "event"
    },
    {
      "anonymous": false,
      "inputs": [
        {
          "indexed": true,
          "internalType": "string",
          "name": "requestId",
          "type": "string"
        }
      ],
      "name": "RequestRejected",
      "type": "event"
    },
    {
      "anonymous": false,
      "inputs": [
        {
          "indexed": true,
          "internalType": "string",
          "name": "requestId",
          "type": "string"
        },
        {
          "indexed": true,
          "internalType": "address",
          "name": "voter",
          "type": "address"
        },
        {
          "indexed": false,
          "internalType": "bool",
          "name": "support",
          "type": "bool"
        },
        {
          "indexed": false,
          "internalType": "uint256",
          "name": "votingPower",
          "type": "uint256"
        }
      ],
      "name": "VoteCast",
      "type": "event"
    },
    {
      "inputs": [
        {
          "internalType": "string",
          "name": "requestId",
          "type": "string"
        },
        {
          "internalType": "address",
          "name": "seller",
          "type": "address"
        },
        {
          "internalType": "uint256",
          "name": "requestedAmount",
          "type": "uint256"
        },
        {
          "internalType": "string",
          "name": "tradeDescription",
          "type": "string"
        }
      ],
      "name": "createRequest",
      "outputs": [],
      "stateMutability": "nonpayable",
      "type": "function"
    },
    {
      "inputs": [],
      "name": "getGovernanceStats",
      "outputs": [
        {
          "internalType": "uint256",
          "name": "totalRequests",
          "type": "uint256"
        },
        {
          "internalType": "uint256",
          "name": "totalFunded",
          "type": "uint256"
        },
        {
          "internalType": "uint256",
          "name": "pendingRequests",
          "type": "uint256"
        }
      ],
      "stateMutability": "view",
      "type": "function"
    },
    {
      "inputs": [
        {
          "internalType": "string",
          "name": "requestId",
          "type": "string"
        }
      ],
      "name": "getRequest",
      "outputs": [
        {
          "internalType": "address",
          "name": "buyer",
          "type": "address"
        },
        {
          "internalType": "address",
          "name": "seller",
          "type": "address"
        },
        {
          "internalType": "uint256",
          "name": "requestedAmount",
          "type": "uint256"
        },
        {
          "internalType": "string",
          "name": "tradeDescription",
          "type": "string"
        },
        {
          "internalType": "uint256",
          "name": "votesFor",
          "type": "uint256"
        },
        {
          "internalType": "uint256",
          "name": "votesAgainst",
          "type": "uint256"
        },
        {
          "internalType": "enum LibAppStorage.RequestStatus",
          "name": "status",
          "type": "uint8"
        },
        {
          "internalType": "bool",
          "name": "fundsReleased",
          "type": "bool"
        }
      ],
      "stateMutability": "view",
      "type": "function"
    },
    {
      "inputs": [
        {
          "internalType": "string",
          "name": "requestId",
          "type": "string"
        }
      ],
      "name": "releaseFunds",
      "outputs": [],
      "stateMutability": "nonpayable",
      "type": "function"
    },
    {
      "inputs": [
        {
          "internalType": "string",
          "name": "requestId",
          "type": "string"
        },
        {
          "internalType": "bool",
          "name": "support",
          "type": "bool"
        }
      ],
      "name": "vote",
      "outputs": [],
      "stateMutability": "nonpayable",
      "type": "function"
    }
  ],
  "bytecode": "0x608060405234801561001057600080fd5b50611571806100206000396000f3fe608060405234801561001057600080fd5b50600436106100575760003560e01c806327d3410c1461005c5780635ad18fa41461007157806385b9241314610084578063c3abd8b3146100b4578063df91f748146100c7575b600080fd5b61006f61006a36600461108f565b6100ea565b005b61006f61007f3660046110e6565b610402565b610097610092366004611174565b61079e565b6040516100ab9897969594939291906111eb565b60405180910390f35b61006f6100c2366004611174565b610a28565b6100cf610cd9565b604080519384526020840192909252908201526060016100ab565b60405160008051602061151c833981519152906000907f57d46e9702633ba0957a07facf7593cb3892767d932b512aa03794e4a217d0239061012d908690611286565b908152602001604051809103902060070154116101855760405162461bcd60e51b815260206004820152601160248201527014995c5d595cdd081b9bdd08199bdd5b99607a1b60448201526064015b60405180910390fd5b600081600601846040516101999190611286565b9081526040519081900360200190206008015460ff1660068111156101c0576101c06111d5565b146101fb5760405162461bcd60e51b815260206004820152600b60248201526a4e6f742070656e64696e6760a81b604482015260640161017c565b806007018360405161020d9190611286565b9081526040805160209281900383019020336000908152925290205460ff16156102695760405162461bcd60e51b815260206004820152600d60248201526c105b1c9958591e481d9bdd1959609a1b604482015260640161017c565b33600090815260018201602052604090206003015460ff16801561029d575033600090815260018201602052604090205415155b6102d65760405162461bcd60e51b815260206004820152600a60248201526904d757374206265204c560b41b604482015260640161017c565b600181600701846040516102ea9190611286565b9081526040805160209281900383019020336000908152908352818120805460ff1916941515949094179093556001840190915290206002015482156103685780826006018560405161033d9190611286565b9081526020016040518091039020600501600082825461035d91906112b8565b909155506103a19050565b80826006018560405161037b9190611286565b9081526020016040518091039020600601600082825461039b91906112b8565b90915550505b60405133906103b1908690611286565b60408051918290038220861515835260208301859052917f8f939c0e8da82099bc9be68995da582362fa8d3032227846326c305b0f2d2e37910160405180910390a36103fc84610d90565b50505050565b835160008051602061151c833981519152906104555760405162461bcd60e51b8152602060048201526012602482015271125b9d985b1a59081c995c5d595cdd08125160721b604482015260640161017c565b6001600160a01b03841661049c5760405162461bcd60e51b815260206004820152600e60248201526d24b73b30b634b21039b2b63632b960911b604482015260640161017c565b600083116104dd5760405162461bcd60e51b815260206004820152600e60248201526d125b9d985b1a5908185b5bdd5b9d60921b604482015260640161017c565b80600601856040516104ef9190611286565b9081526020016040518091039020600701546000146105415760405162461bcd60e51b815260206004820152600e60248201526d526571756573742065786973747360901b604482015260640161017c565b604051806101c00160405280868152602001336001600160a01b03168152602001856001600160a01b031681526020018481526020018381526020016000815260200160008152602001428152602001600060068111156105a4576105a46111d5565b81526020016000151581526020016000815260200160001515815260200160008152602001600081525081600601866040516105e09190611286565b908152604051908190036020019020815181906105fd9082611351565b5060208201516001820180546001600160a01b039283166001600160a01b031991821617909155604084015160028401805491909316911617905560608201516003820155608082015160048201906106569082611351565b5060a0820151816005015560c0820151816006015560e082015181600701556101008201518160080160006101000a81548160ff021916908360068111156106a0576106a06111d5565b02179055506101208201516008828101805461ff00191661010093151593909302929092179091556101408301516009830155610160830151600a8301805460ff1916911515919091179055610180830151600b8301556101a090920151600c909101558101805460018101825560009182526020909120016107238682611351565b5060098101805490600061073683611411565b9190505550836001600160a01b0316336001600160a01b03168660405161075d9190611286565b604051908190038120868252907f57870bde6ec13e0846b0aeb1be72829abb76d2421d127ed9afcd8501e508c4ac9060200160405180910390a45050505050565b600080806060818080808060008051602061151c83398151915290506000816006018b6040516107ce9190611286565b9081526020016040518091039020604051806101c00160405290816000820180546107f8906112d1565b80601f0160208091040260200160405190810160405280929190818152602001828054610824906112d1565b80156108715780601f1061084657610100808354040283529160200191610871565b820191906000526020600020905b81548152906001019060200180831161085457829003601f168201915b505050918352505060018201546001600160a01b0390811660208301526002830154166040820152600382015460608201526004820180546080909201916108b8906112d1565b80601f01602080910402602001604051908101604052809291908181526020018280546108e4906112d1565b80156109315780601f1061090657610100808354040283529160200191610931565b820191906000526020600020905b81548152906001019060200180831161091457829003601f168201915b505050918352505060058201546020820152600680830154604083015260078301546060830152600883015460809092019160ff1690811115610976576109766111d5565b6006811115610987576109876111d5565b81526020016008820160019054906101000a900460ff1615151515815260200160098201548152602001600a820160009054906101000a900460ff16151515158152602001600b8201548152602001600c82015481525050905080602001518160400151826060015183608001518460a001518560c00151866101000151876101200151995099509950995099509950995099505050919395975091939597565b60405160008051602061151c833981519152906000907f57d46e9702633ba0957a07facf7593cb3892767d932b512aa03794e4a217d02390610a6b908590611286565b90815260405190819003602001902090506001600882015460ff166006811115610a9757610a976111d5565b14610ad35760405162461bcd60e51b815260206004820152600c60248201526b139bdd08185c1c1c9bdd995960a21b604482015260640161017c565b6008810154610100900460ff1615610b205760405162461bcd60e51b815260206004820152601060248201526f105b1c9958591e481c995b19585cd95960821b604482015260640161017c565b60018101546001600160a01b03163314610b685760405162461bcd60e51b81526020600482015260096024820152682737ba10313abcb2b960b91b604482015260640161017c565b81546040516370a0823160e01b81523060048201526000916001600160a01b0316906370a0823190602401602060405180830381865afa158015610bb0573d6000803e3d6000fd5b505050506040513d601f19601f82011682018060405250810190610bd4919061142a565b90508160030154811015610c235760405162461bcd60e51b8152602060048201526016602482015275496e73756666696369656e74206c697175696469747960501b604482015260640161017c565b60088201805461ffff19166101031790556003820154600a84018054600090610c4d9084906112b8565b9091555050600282015460038301548454610c76926001600160a01b0391821692911690610f24565b60028201546040516001600160a01b0390911690610c95908690611286565b60405190819003812060038501548252907f5d07e479b2c57806dfc07de4b3c583b66ee18a3f13fcb9209f73f580b7f505bc9060200160405180910390a350505050565b6000808060008051602061151c83398151915281805b6008830154811015610d7957600083600601846008018381548110610d1657610d16611443565b90600052602060002001604051610d2d9190611459565b9081526040519081900360200190206008015460ff166006811115610d5457610d546111d5565b03610d675781610d6381611411565b9250505b80610d7181611411565b915050610cef565b506009820154600a90920154919591945092509050565b60405160008051602061151c833981519152906000907f57d46e9702633ba0957a07facf7593cb3892767d932b512aa03794e4a217d02390610dd3908590611286565b90815260200160405180910390209050600081600601548260050154610df991906112b8565b905080600003610e095750505050565b60008183600501546064610e1d91906114cf565b610e2791906114e6565b905083600b01548110610e865760088301805460ff19166001179055604051610e51908690611286565b604051908190038120907ffce62832014c1f39bce597e23f75f293914886b2869c6cafa85192e4cf3202be90600090a2610f1d565b670de0b6b3a76400008210610f1d5760008284600601546064610ea991906114cf565b610eb391906114e6565b905084600b01546064610ec69190611508565b811115610f1b5760088401805460ff19166002179055604051610eea908790611286565b604051908190038120907f5c687cc384ecfc465344107a6c6b32ddfd590eaa4a8c2fd3f7a8e9c1452caf1790600090a25b505b5050505050565b604080516001600160a01b038416602482015260448082018490528251808303909101815260649091019091526020810180516001600160e01b031663a9059cbb60e01b179052610f76908490610f7b565b505050565b600080602060008451602086016000885af180610f9e576040513d6000823e3d81fd5b50506000513d91508115610fb6578060011415610fc3565b6001600160a01b0384163b155b156103fc57604051635274afe760e01b81526001600160a01b038516600482015260240161017c565b634e487b7160e01b600052604160045260246000fd5b600082601f83011261101357600080fd5b813567ffffffffffffffff8082111561102e5761102e610fec565b604051601f8301601f19908116603f0116810190828211818310171561105657611056610fec565b8160405283815286602085880101111561106f57600080fd5b836020870160208301376000602085830101528094505050505092915050565b600080604083850312156110a257600080fd5b823567ffffffffffffffff8111156110b957600080fd5b6110c585828601611002565b925050602083013580151581146110db57600080fd5b809150509250929050565b600080600080608085870312156110fc57600080fd5b843567ffffffffffffffff8082111561111457600080fd5b61112088838901611002565b9550602087013591506001600160a01b038216821461113e57600080fd5b909350604086013592506060860135908082111561115b57600080fd5b5061116887828801611002565b91505092959194509250565b60006020828403121561118657600080fd5b813567ffffffffffffffff81111561119d57600080fd5b6111a984828501611002565b949350505050565b60005b838110156111cc5781810151838201526020016111b4565b50506000910152565b634e487b7160e01b600052602160045260246000fd5b600061010060018060a01b03808c168452808b1660208501525088604084015280606084015287518082850152610120915061122d8183860160208c016111b1565b6080840188905260a08401879052601f01601f191683010190506007841061126557634e487b7160e01b600052602160045260246000fd5b8360c083015261127960e083018415159052565b9998505050505050505050565b600082516112988184602087016111b1565b9190910192915050565b634e487b7160e01b600052601160045260246000fd5b808201808211156112cb576112cb6112a2565b92915050565b600181811c908216806112e557607f821691505b60208210810361130557634e487b7160e01b600052602260045260246000fd5b50919050565b601f821115610f7657600081815260208120601f850160051c810160208610156113325750805b601f850160051c820191505b81811015610f1b5782815560010161133e565b815167ffffffffffffffff81111561136b5761136b610fec565b61137f8161137984546112d1565b8461130b565b602080601f8311600181146113b4576000841561139c5750858301515b600019600386901b1c1916600185901b178555610f1b565b600085815260208120601f198616915b828110156113e3578886015182559484019460019091019084016113c4565b50858210156114015787850151600019600388901b60f8161c191681555b5050505050600190811b01905550565b600060018201611423576114236112a2565b5060010190565b60006020828403121561143c57600080fd5b5051919050565b634e487b7160e01b600052603260045260246000fd5b6000808354611467816112d1565b6001828116801561147f5760018114611494576114c3565b60ff19841687528215158302870194506114c3565b8760005260208060002060005b858110156114ba5781548a8201529084019082016114a1565b50505082870194505b50929695505050505050565b80820281158282048414176112cb576112cb6112a2565b60008261150357634e487b7160e01b600052601260045260246000fd5b500490565b818103818111156112cb576112cb6112a256fe57d46e9702633ba0957a07facf7593cb3892767d932b512aa03794e4a217d01da26469706673582212202c1124e91d3f2831b4eb03b3a28b7128c691a208a440addcc7cc03e7de37fe9264736f6c63430008140033",
  "linkReferences": {},
  "deployedLinkReferences": {}
}