{
  "_format": "hh-sol-artifact-1",
  "contractName": "InvoiceFacet",
  "sourceName": "src/facets/InvoiceFacet.sol",
  "abi": [
    {
      "inputs": [
        {
          "internalType": "address",
          "name": "token",
          "type": "address"
        }
      ],
      "name": "SafeERC20FailedOperation",
      "type": "error"
    },
    {
      "anonymous": false,
      "inputs": [
        {
          "indexed": true,
          "internalType": "uint256",
          "name": "invoiceId",
          "type": "uint256"
        }
      ],
      "name": "InvoiceCancelled",
      "type": "event"
    },
    {
      "anonymous": false,
      "inputs": [
        {
          "indexed": true,
          "internalType": "uint256",
          "name": "invoiceId",
          "type": "uint256"
        },
        {
          "indexed": false,
          "internalType": "string",
          "name": "invoiceNumber",
          "type": "string"
        },
        {
          "indexed": true,
          "internalType": "address",
          "name": "payer",
          "type": "address"
        },
        {
          "indexed": true,
          "internalType": "address",
          "name": "payee",
          "type": "address"
        },
        {
          "indexed": false,
          "internalType": "uint256",
          "name": "amount",
          "type": "uint256"
        }
      ],
      "name": "InvoiceCreated",
      "type": "event"
    },
    {
      "anonymous": false,
      "inputs": [
        {
          "indexed": true,
          "internalType": "uint256",
          "name": "invoiceId",
          "type": "uint256"
        },
        {
          "indexed": true,
          "internalType": "address",
          "name": "payer",
          "type": "address"
        },
        {
          "indexed": false,
          "internalType": "uint256",
          "name": "amount",
          "type": "uint256"
        }
      ],
      "name": "InvoicePaid",
      "type": "event"
    },
    {
      "anonymous": false,
      "inputs": [
        {
          "indexed": true,
          "internalType": "uint256",
          "name": "invoiceId",
          "type": "uint256"
        },
        {
          "indexed": true,
          "internalType": "address",
          "name": "viewer",
          "type": "address"
        }
      ],
      "name": "InvoiceViewed",
      "type": "event"
    },
    {
      "inputs": [
        {
          "internalType": "uint256",
          "name": "_invoiceId",
          "type": "uint256"
        }
      ],
      "name": "cancelInvoice",
      "outputs": [],
      "stateMutability": "nonpayable",
      "type": "function"
    },
    {
      "inputs": [
        {
          "internalType": "string",
          "name": "_invoiceNumber",
          "type": "string"
        },
        {
          "internalType": "address",
          "name": "_payer",
          "type": "address"
        },
        {
          "internalType": "uint256",
          "name": "_amount",
          "type": "uint256"
        },
        {
          "internalType": "address",
          "name": "_tokenAddress",
          "type": "address"
        },
        {
          "internalType": "uint256",
          "name": "_dueDate",
          "type": "uint256"
        },
        {
          "internalType": "string",
          "name": "_description",
          "type": "string"
        },
        {
          "internalType": "string",
          "name": "_termsHash",
          "type": "string"
        }
      ],
      "name": "createInvoice",
      "outputs": [
        {
          "internalType": "uint256",
          "name": "",
          "type": "uint256"
        }
      ],
      "stateMutability": "nonpayable",
      "type": "function"
    },
    {
      "inputs": [
        {
          "internalType": "uint256",
          "name": "_invoiceId",
          "type": "uint256"
        }
      ],
      "name": "getInvoice",
      "outputs": [
        {
          "internalType": "string",
          "name": "invoiceNumber",
          "type": "string"
        },
        {
          "internalType": "address",
          "name": "payer",
          "type": "address"
        },
        {
          "internalType": "address",
          "name": "payee",
          "type": "address"
        },
        {
          "internalType": "uint256",
          "name": "amount",
          "type": "uint256"
        },
        {
          "internalType": "address",
          "name": "tokenAddress",
          "type": "address"
        },
        {
          "internalType": "uint256",
          "name": "dueDate",
          "type": "uint256"
        },
        {
          "internalType": "enum LibAppStorage.InvoiceStatus",
          "name": "status",
          "type": "uint8"
        },
        {
          "internalType": "uint256",
          "name": "paidAt",
          "type": "uint256"
        },
        {
          "internalType": "string",
          "name": "description",
          "type": "string"
        }
      ],
      "stateMutability": "view",
      "type": "function"
    },
    {
      "inputs": [
        {
          "internalType": "string",
          "name": "_invoiceNumber",
          "type": "string"
        }
      ],
      "name": "getInvoiceByNumber",
      "outputs": [
        {
          "internalType": "uint256",
          "name": "",
          "type": "uint256"
        }
      ],
      "stateMutability": "view",
      "type": "function"
    },
    {
      "inputs": [],
      "name": "getInvoiceStats",
      "outputs": [
        {
          "internalType": "uint256",
          "name": "totalInvoices",
          "type": "uint256"
        },
        {
          "internalType": "uint256",
          "name": "paidInvoices",
          "type": "uint256"
        },
        {
          "internalType": "uint256",
          "name": "pendingInvoices",
          "type": "uint256"
        }
      ],
      "stateMutability": "view",
      "type": "function"
    },
    {
      "inputs": [
        {
          "internalType": "uint256",
          "name": "_invoiceId",
          "type": "uint256"
        }
      ],
      "name": "isOverdue",
      "outputs": [
        {
          "internalType": "bool",
          "name": "",
          "type": "bool"
        }
      ],
      "stateMutability": "view",
      "type": "function"
    },
    {
      "inputs": [
        {
          "internalType": "uint256",
          "name": "_invoiceId",
          "type": "uint256"
        }
      ],
      "name": "markInvoiceViewed",
      "outputs": [],
      "stateMutability": "nonpayable",
      "type": "function"
    },
    {
      "inputs": [
        {
          "internalType": "uint256",
          "name": "_invoiceId",
          "type": "uint256"
        }
      ],
      "name": "payInvoice",
      "outputs": [],
      "stateMutability": "payable",
      "type": "function"
    },
    {
      "inputs": [
        {
          "internalType": "uint256",
          "name": "_invoiceId",
          "type": "uint256"
        }
      ],
      "name": "updateOverdueStatus",
      "outputs": [],
      "stateMutability": "nonpayable",
      "type": "function"
    }
  ],
  "bytecode": "0x608060405234801561001057600080fd5b506114a1806100206000396000f3fe6080604052600436106100865760003560e01c8063c301f0a011610059578063c301f0a01461012e578063d22a0d0f1461015c578063da9c273d1461018c578063dccd63b9146101ac578063e15c0fcd146101cc57600080fd5b80633a23cc0a1461008b57806344cd1ab1146100c95780639993e50c146100f9578063ac60a6cd1461011b575b600080fd5b34801561009757600080fd5b506100ab6100a6366004610f93565b6101ec565b6040516100c099989796959493929190611012565b60405180910390f35b3480156100d557600080fd5b506100de61039c565b604080519384526020840192909252908201526060016100c0565b34801561010557600080fd5b50610119610114366004610f93565b610494565b005b610119610129366004610f93565b6105bb565b34801561013a57600080fd5b5061014e610149366004611145565b61081a565b6040519081526020016100c0565b34801561016857600080fd5b5061017c610177366004610f93565b610874565b60405190151581526020016100c0565b34801561019857600080fd5b506101196101a7366004610f93565b6108fa565b3480156101b857600080fd5b5061014e6101c7366004611196565b610a22565b3480156101d857600080fd5b506101196101e7366004610f93565b610dce565b60606000808080808080878160008051602061142c83398151915260008c815260168201602052604090206002810154600382015460048301546005840154600685015460078601546008870154600188018054999a5097986001600160a01b0397881697968716969094169360ff9092169160098a0190899061026f90611253565b80601f016020809104026020016040519081016040528092919081815260200182805461029b90611253565b80156102e85780601f106102bd576101008083540402835291602001916102e8565b820191906000526020600020905b8154815290600101906020018083116102cb57829003601f168201915b505050505098508080546102fb90611253565b80601f016020809104026020016040519081016040528092919081815260200182805461032790611253565b80156103745780601f1061034957610100808354040283529160200191610374565b820191906000526020600020905b81548152906001019060200180831161035757829003601f168201915b505050505090509a509a509a509a509a509a509a509a509a5050509193959799909294969850565b6000808060008051602061142c833981519152818060015b83601801548111610482576003600082815260168601602052604090206007015460ff1660058111156103e9576103e9610ffc565b0361040057826103f88161128d565b935050610470565b6001600082815260168601602052604090206007015460ff16600581111561042a5761042a610ffc565b148061045d57506002600082815260168601602052604090206007015460ff16600581111561045b5761045b610ffc565b145b15610470578161046c8161128d565b9250505b8061047a8161128d565b9150506103b4565b50601990920154959094509092509050565b600081815260008051602061144c83398151915260205260409020805460008051602061142c83398151915291906104e75760405162461bcd60e51b81526004016104de906112b4565b60405180910390fd5b6003600782015460ff16600581111561050257610502610ffc565b1415801561052957506005600782015460ff16600581111561052657610526610ffc565b14155b6105755760405162461bcd60e51b815260206004820152601760248201527f496e766f69636520616c726561647920736574746c656400000000000000000060448201526064016104de565b8060060154421180156105a157506004600782015460ff16600581111561059e5761059e610ffc565b14155b156105b65760078101805460ff191660041790555b505050565b600081815260008051602061144c83398151915260205260409020805460008051602061142c83398151915291906106055760405162461bcd60e51b81526004016104de906112b4565b60028101546001600160a01b0316331461064d5760405162461bcd60e51b81526020600482015260096024820152682737ba103830bcb2b960b91b60448201526064016104de565b6003600782015460ff16600581111561066857610668610ffc565b036106a45760405162461bcd60e51b815260206004820152600c60248201526b105b1c9958591e481c185a5960a21b60448201526064016104de565b6005600782015460ff1660058111156106bf576106bf610ffc565b036106f85760405162461bcd60e51b815260206004820152600960248201526810d85b98d95b1b195960ba1b60448201526064016104de565b60058101546001600160a01b031661079a57806004015434146107545760405162461bcd60e51b8152602060048201526014602482015273125b98dbdc9c9958dd0811551208185b5bdd5b9d60621b60448201526064016104de565b600381015460048201546040516001600160a01b039092169181156108fc0291906000818181858888f19350505050158015610794573d6000803e3d6000fd5b506107c4565b6003810154600482015460058301546107c4926001600160a01b0391821692339290911690610ec2565b60078101805460ff191660031790554260088201556004810154604051908152339084907fa6abfda59e12fa300d17e1aa76bd3233eaf23ee4feb4b02b6516ad1d60be84009060200160405180910390a3505050565b60405160009060008051602061142c833981519152907f57d46e9702633ba0957a07facf7593cb3892767d932b512aa03794e4a217d0349061085d9085906112df565b908152602001604051809103902054915050919050565b600081815260008051602061144c83398151915260205260408120600781015460008051602061142c833981519152919060039060ff1660058111156108bc576108bc610ffc565b141580156108e357506005600782015460ff1660058111156108e0576108e0610ffc565b14155b80156108f25750806006015442115b949350505050565b600081815260008051602061144c83398151915260205260409020805460008051602061142c83398151915291906109445760405162461bcd60e51b81526004016104de906112b4565b60038101546001600160a01b0316331461098c5760405162461bcd60e51b81526020600482015260096024820152684e6f7420706179656560b81b60448201526064016104de565b6003600782015460ff1660058111156109a7576109a7610ffc565b036109e35760405162461bcd60e51b815260206004820152600c60248201526b105b1c9958591e481c185a5960a21b60448201526064016104de565b60078101805460ff1916600517905560405183907f2e9842040508f80e6420769a8673529eb3af5b952f53af83d9c9d3432da7804690600090a2505050565b865160009060008051602061142c83398151915290610a7c5760405162461bcd60e51b815260206004820152601660248201527524b73b30b634b21034b73b37b4b1b290373ab6b132b960511b60448201526064016104de565b6001600160a01b038816610ac25760405162461bcd60e51b815260206004820152600d60248201526c24b73b30b634b2103830bcb2b960991b60448201526064016104de565b60008711610b035760405162461bcd60e51b815260206004820152600e60248201526d125b9d985b1a5908185b5bdd5b9d60921b60448201526064016104de565b428511610b455760405162461bcd60e51b815260206004820152601060248201526f496e76616c696420647565206461746560801b60448201526064016104de565b8060170189604051610b5791906112df565b908152602001604051809103902054600014610bad5760405162461bcd60e51b8152602060048201526015602482015274496e766f696365206e756d6265722065786973747360581b60448201526064016104de565b60008160180160008154610bc09061128d565b91905081905590506040518061016001604052808281526020018b81526020018a6001600160a01b03168152602001336001600160a01b03168152602001898152602001886001600160a01b0316815260200187815260200160016005811115610c2c57610c2c610ffc565b81526000602080830182905260408084018a9052606090930188905284825260168601815291902082518155908201516001820190610c6b9082611349565b5060408201516002820180546001600160a01b03199081166001600160a01b0393841617909155606084015160038401805483169184169190911790556080840151600484015560a0840151600580850180549093169190931617905560c0830151600683015560e08301516007830180549192909160ff1916906001908490811115610cfa57610cfa610ffc565b021790555061010082015160088201556101208201516009820190610d1f9082611349565b50610140820151600a820190610d359082611349565b5090505080826017018b604051610d4c91906112df565b90815260405190819003602001902055601982018054906000610d6e8361128d565b9190505550336001600160a01b0316896001600160a01b0316827f4ac251d6638e1dc010c8fe3b83f8b0caa9beed72686b1cc62774a3298e2004308d8c604051610db9929190611409565b60405180910390a49998505050505050505050565b600081815260008051602061144c83398151915260205260409020805460008051602061142c8339815191529190610e185760405162461bcd60e51b81526004016104de906112b4565b60028101546001600160a01b03163314610e605760405162461bcd60e51b81526020600482015260096024820152682737ba103830bcb2b960b91b60448201526064016104de565b6001600782015460ff166005811115610e7b57610e7b610ffc565b03610e905760078101805460ff191660021790555b604051339084907fb8b0b37fec28854fce663f619d2468bfe0444943becb38e99119d7f599728c0d90600090a3505050565b604080516001600160a01b0385811660248301528416604482015260648082018490528251808303909101815260849091019091526020810180516001600160e01b03166323b872dd60e01b179052610f1c908590610f22565b50505050565b600080602060008451602086016000885af180610f45576040513d6000823e3d81fd5b50506000513d91508115610f5d578060011415610f6a565b6001600160a01b0384163b155b15610f1c57604051635274afe760e01b81526001600160a01b03851660048201526024016104de565b600060208284031215610fa557600080fd5b5035919050565b60005b83811015610fc7578181015183820152602001610faf565b50506000910152565b60008151808452610fe8816020860160208601610fac565b601f01601f19169290920160200192915050565b634e487b7160e01b600052602160045260246000fd5b60006101208083526110268184018d610fd0565b6001600160a01b038c811660208601528b81166040860152606085018b90528916608085015260a0840188905290506006861061107357634e487b7160e01b600052602160045260246000fd5b8560c08401528460e08401528281036101008401526110928185610fd0565b9c9b505050505050505050505050565b634e487b7160e01b600052604160045260246000fd5b600082601f8301126110c957600080fd5b813567ffffffffffffffff808211156110e4576110e46110a2565b604051601f8301601f19908116603f0116810190828211818310171561110c5761110c6110a2565b8160405283815286602085880101111561112557600080fd5b836020870160208301376000602085830101528094505050505092915050565b60006020828403121561115757600080fd5b813567ffffffffffffffff81111561116e57600080fd5b6108f2848285016110b8565b80356001600160a01b038116811461119157600080fd5b919050565b600080600080600080600060e0888a0312156111b157600080fd5b873567ffffffffffffffff808211156111c957600080fd5b6111d58b838c016110b8565b98506111e360208b0161117a565b975060408a013596506111f860608b0161117a565b955060808a0135945060a08a013591508082111561121557600080fd5b6112218b838c016110b8565b935060c08a013591508082111561123757600080fd5b506112448a828b016110b8565b91505092959891949750929550565b600181811c9082168061126757607f821691505b60208210810361128757634e487b7160e01b600052602260045260246000fd5b50919050565b6000600182016112ad57634e487b7160e01b600052601160045260246000fd5b5060010190565b602080825260119082015270125b9d9bda58d9481b9bdd08199bdd5b99607a1b604082015260600190565b600082516112f1818460208701610fac565b9190910192915050565b601f8211156105b657600081815260208120601f850160051c810160208610156113225750805b601f850160051c820191505b818110156113415782815560010161132e565b505050505050565b815167ffffffffffffffff811115611363576113636110a2565b611377816113718454611253565b846112fb565b602080601f8311600181146113ac57600084156113945750858301515b600019600386901b1c1916600185901b178555611341565b600085815260208120601f198616915b828110156113db578886015182559484019460019091019084016113bc565b50858210156113f95787850151600019600388901b60f8161c191681555b5050505050600190811b01905550565b60408152600061141c6040830185610fd0565b9050826020830152939250505056fe57d46e9702633ba0957a07facf7593cb3892767d932b512aa03794e4a217d01d57d46e9702633ba0957a07facf7593cb3892767d932b512aa03794e4a217d033a2646970667358221220dbe81cb63df2df9007e3d34122f3348c78f47a98d4eff257711412b3f843c81e64736f6c63430008140033",
  "linkReferences": {},
  "deployedLinkReferences": {}
}