{
  "_format": "hh-sol-artifact-1",
  "contractName": "DocumentFacet",
  "sourceName": "src/facets/DocumentFacet.sol",
  "abi": [
    {
      "anonymous": false,
      "inputs": [
        {
          "indexed": true,
          "internalType": "bytes32",
          "name": "documentHash",
          "type": "bytes32"
        },
        {
          "indexed": true,
          "internalType": "uint256",
          "name": "escrowId",
          "type": "uint256"
        }
      ],
      "name": "DocumentLinkedToEscrow",
      "type": "event"
    },
    {
      "anonymous": false,
      "inputs": [
        {
          "indexed": true,
          "internalType": "bytes32",
          "name": "documentHash",
          "type": "bytes32"
        },
        {
          "indexed": true,
          "internalType": "uint256",
          "name": "invoiceId",
          "type": "uint256"
        }
      ],
      "name": "DocumentLinkedToInvoice",
      "type": "event"
    },
    {
      "anonymous": false,
      "inputs": [
        {
          "indexed": true,
          "internalType": "bytes32",
          "name": "documentHash",
          "type": "bytes32"
        },
        {
          "indexed": true,
          "internalType": "address",
          "name": "uploader",
          "type": "address"
        },
        {
          "indexed": false,
          "internalType": "enum LibAppStorage.DocumentType",
          "name": "docType",
          "type": "uint8"
        },
        {
          "indexed": false,
          "internalType": "string",
          "name": "metadataURI",
          "type": "string"
        }
      ],
      "name": "DocumentRegistered",
      "type": "event"
    },
    {
      "anonymous": false,
      "inputs": [
        {
          "indexed": true,
          "internalType": "bytes32",
          "name": "documentHash",
          "type": "bytes32"
        },
        {
          "indexed": true,
          "internalType": "address",
          "name": "verifier",
          "type": "address"
        }
      ],
      "name": "DocumentVerified",
      "type": "event"
    },
    {
      "inputs": [
        {
          "internalType": "bytes32[]",
          "name": "_documentHashes",
          "type": "bytes32[]"
        }
      ],
      "name": "batchVerifyDocuments",
      "outputs": [
        {
          "internalType": "bool[]",
          "name": "results",
          "type": "bool[]"
        }
      ],
      "stateMutability": "view",
      "type": "function"
    },
    {
      "inputs": [
        {
          "internalType": "bytes32",
          "name": "_documentHash",
          "type": "bytes32"
        }
      ],
      "name": "getDocument",
      "outputs": [
        {
          "internalType": "bytes32",
          "name": "documentHash",
          "type": "bytes32"
        },
        {
          "internalType": "string",
          "name": "metadataURI",
          "type": "string"
        },
        {
          "internalType": "address",
          "name": "uploader",
          "type": "address"
        },
        {
          "internalType": "uint256",
          "name": "timestamp",
          "type": "uint256"
        },
        {
          "internalType": "enum LibAppStorage.DocumentType",
          "name": "docType",
          "type": "uint8"
        },
        {
          "internalType": "uint256",
          "name": "linkedEscrowId",
          "type": "uint256"
        },
        {
          "internalType": "uint256",
          "name": "linkedInvoiceId",
          "type": "uint256"
        },
        {
          "internalType": "bool",
          "name": "verified",
          "type": "bool"
        }
      ],
      "stateMutability": "view",
      "type": "function"
    },
    {
      "inputs": [
        {
          "internalType": "uint256",
          "name": "_escrowId",
          "type": "uint256"
        }
      ],
      "name": "getEscrowDocuments",
      "outputs": [
        {
          "internalType": "bytes32[]",
          "name": "",
          "type": "bytes32[]"
        }
      ],
      "stateMutability": "view",
      "type": "function"
    },
    {
      "inputs": [
        {
          "internalType": "uint256",
          "name": "_invoiceId",
          "type": "uint256"
        }
      ],
      "name": "getInvoiceDocuments",
      "outputs": [
        {
          "internalType": "bytes32[]",
          "name": "",
          "type": "bytes32[]"
        }
      ],
      "stateMutability": "view",
      "type": "function"
    },
    {
      "inputs": [],
      "name": "getTotalDocuments",
      "outputs": [
        {
          "internalType": "uint256",
          "name": "",
          "type": "uint256"
        }
      ],
      "stateMutability": "view",
      "type": "function"
    },
    {
      "inputs": [
        {
          "internalType": "address",
          "name": "_user",
          "type": "address"
        }
      ],
      "name": "getUserDocuments",
      "outputs": [
        {
          "internalType": "bytes32[]",
          "name": "",
          "type": "bytes32[]"
        }
      ],
      "stateMutability": "view",
      "type": "function"
    },
    {
      "inputs": [
        {
          "internalType": "bytes32",
          "name": "_documentHash",
          "type": "bytes32"
        },
        {
          "internalType": "uint256",
          "name": "_escrowId",
          "type": "uint256"
        }
      ],
      "name": "linkDocumentToEscrow",
      "outputs": [],
      "stateMutability": "nonpayable",
      "type": "function"
    },
    {
      "inputs": [
        {
          "internalType": "bytes32",
          "name": "_documentHash",
          "type": "bytes32"
        },
        {
          "internalType": "uint256",
          "name": "_invoiceId",
          "type": "uint256"
        }
      ],
      "name": "linkDocumentToInvoice",
      "outputs": [],
      "stateMutability": "nonpayable",
      "type": "function"
    },
    {
      "inputs": [
        {
          "internalType": "bytes32",
          "name": "_documentHash",
          "type": "bytes32"
        }
      ],
      "name": "markDocumentVerified",
      "outputs": [],
      "stateMutability": "nonpayable",
      "type": "function"
    },
    {
      "inputs": [
        {
          "internalType": "bytes32",
          "name": "_documentHash",
          "type": "bytes32"
        },
        {
          "internalType": "string",
          "name": "_metadataURI",
          "type": "string"
        },
        {
          "internalType": "enum LibAppStorage.DocumentType",
          "name": "_docType",
          "type": "uint8"
        }
      ],
      "name": "registerDocument",
      "outputs": [
        {
          "internalType": "bytes32",
          "name": "",
          "type": "bytes32"
        }
      ],
      "stateMutability": "nonpayable",
      "type": "function"
    },
    {
      "inputs": [
        {
          "internalType": "bytes32",
          "name": "_documentHash",
          "type": "bytes32"
        }
      ],
      "name": "verifyDocument",
      "outputs": [
        {
          "internalType": "bool",
          "name": "exists",
          "type": "bool"
        },
        {
          "internalType": "address",
          "name": "uploader",
          "type": "address"
        },
        {
          "internalType": "uint256",
          "name": "timestamp",
          "type": "uint256"
        }
      ],
      "stateMutability": "view",
      "type": "function"
    }
  ],
  "bytecode": "0x608060405234801561001057600080fd5b5061127f806100206000396000f3fe608060405234801561001057600080fd5b50600436106100a95760003560e01c806390a4b1621161007157806390a4b1621461013c578063b10d6b411461014f578063b702d48d14610176578063c944709414610189578063e90e7ad41461019c578063fe35089f146101c357600080fd5b8063260f9c9b146100ae5780633b72ef9e146100d45780633d7502fb146100e957806366d7fb75146100fc578063698a932b1461011c575b600080fd5b6100c16100bc366004610d11565b61022f565b6040519081526020015b60405180910390f35b6100e76100e2366004610dc0565b61042a565b005b6100e76100f7366004610dd9565b610600565b61010f61010a366004610dc0565b610778565b6040516100cb9190610dfb565b61012f61012a366004610e3f565b61080d565b6040516100cb9190610ee5565b61010f61014a366004610f1f565b6108e2565b61016261015d366004610dc0565b61097f565b6040516100cb989796959493929190610fcd565b61010f610184366004610dc0565b610a95565b6100e7610197366004610dd9565b610b28565b7f57d46e9702633ba0957a07facf7593cb3892767d932b512aa03794e4a217d03b546100c1565b61020a6101d1366004610dc0565b600090815260008051602061122a833981519152602052604090206003810154600290910154811515926001600160a01b039091169190565b6040805193151584526001600160a01b039092166020840152908201526060016100cb565b600060008051602061120a8339815191528461028a5760405162461bcd60e51b8152602060048201526015602482015274092dcecc2d8d2c840c8dec6eadacadce840d0c2e6d605b1b60448201526064015b60405180910390fd5b60008451116102d35760405162461bcd60e51b815260206004820152601560248201527413595d1859185d1848155492481c995c5d5a5c9959605a1b6044820152606401610281565b6000858152601a82016020526040902060030154156103345760405162461bcd60e51b815260206004820152601b60248201527f446f63756d656e7420616c7265616479207265676973746572656400000000006044820152606401610281565b6000858152601a8201602052604090208581556001810161035586826110b8565b506002810180546001600160a01b0319163317905542600382015560048101805485919060ff1916600183600681111561039157610391610f95565b021790555060078101805460ff19169055336000908152601b8301602090815260408220805460018101825590835290822001879055601e83018054916103d783611178565b9190505550336001600160a01b0316867ffa8ed5d147ee349b48bc29d2a19a924442a8ec6420edb57ce69d48930aaccb59868860405161041892919061119f565b60405180910390a35093949350505050565b600081815260008051602061122a83398151915260205260409020600381015460008051602061120a83398151915291906104775760405162461bcd60e51b8152600401610281906111c7565b60028101546000906001600160a01b03163303610492575060015b801580156104a4575060008260050154115b156105085760058201546000908152601284016020526040902060038101546001600160a01b03163314806104e5575060018101546001600160a01b031633145b806104fc575060028101546001600160a01b031633145b1561050657600191505b505b8015801561051a575060008260060154115b156105675760068201546000908152601684016020526040902060028101546001600160a01b031633148061055b575060038101546001600160a01b031633145b1561056557600191505b505b806105be5760405162461bcd60e51b815260206004820152602160248201527f4e6f7420617574686f72697a656420746f2076657269667920646f63756d656e6044820152601d60fa1b6064820152608401610281565b60078201805460ff19166001179055604051339085907f536e3e5b353ccc73d28014bd5d2ff03ced4b84fa024148b4949000af72f0a25490600090a350505050565b600082815260008051602061122a833981519152602052604090206003015460008051602061120a8339815191529061064b5760405162461bcd60e51b8152600401610281906111c7565b600082815260168201602052604090205461069c5760405162461bcd60e51b8152602060048201526011602482015270125b9d9bda58d9481b9bdd08199bdd5b99607a1b6044820152606401610281565b6000828152601682016020526040902060028101546001600160a01b03163314806106d3575060038101546001600160a01b031633145b6107105760405162461bcd60e51b815260206004820152600e60248201526d139bdd08185d5d1a1bdc9a5e995960921b6044820152606401610281565b6000848152601a830160209081526040808320600601869055858352601d85018252808320805460018101825590845291832090910186905551849186917ff4794517a2e6a7c45671805295174edd750ca07863d464605e94dd4b5450fa3b9190a350505050565b60008181527f57d46e9702633ba0957a07facf7593cb3892767d932b512aa03794e4a217d0396020908152604091829020805483518184028101840190945280845260609360008051602061120a833981519152939092919083018282801561080057602002820191906000526020600020905b8154815260200190600101908083116107ec575b5050505050915050919050565b805160609060008051602061120a8339815191529067ffffffffffffffff81111561083a5761083a610cb6565b604051908082528060200260200182016040528015610863578160200160208202803683370190505b50915060005b83518110156108db57600082601a01600086848151811061088c5761088c6111f3565b6020026020010151815260200190815260200160002060030154118382815181106108b9576108b96111f3565b91151560209283029190910190910152806108d381611178565b915050610869565b5050919050565b6001600160a01b03811660009081527f57d46e9702633ba0957a07facf7593cb3892767d932b512aa03794e4a217d0386020908152604091829020805483518184028101840190945280845260609360008051602061120a833981519152939092919083018282801561080057602002820191906000526020600020908154815260200190600101908083116107ec575050505050915050919050565b600060608180808080808060008051602061120a83398151915260008b8152601a8201602052604090208054600282015460038301546004840154600585015460068601546007870154600188018054999a5097989697966001600160a01b039096169560ff948516949091169087906109f89061102f565b80601f0160208091040260200160405190810160405280929190818152602001828054610a249061102f565b8015610a715780601f10610a4657610100808354040283529160200191610a71565b820191906000526020600020905b815481529060010190602001808311610a5457829003601f168201915b50505050509650995099509950995099509950995099505050919395975091939597565b60008181527f57d46e9702633ba0957a07facf7593cb3892767d932b512aa03794e4a217d03a6020908152604091829020805483518184028101840190945280845260609360008051602061120a833981519152939092919083018282801561080057602002820191906000526020600020908154815260200190600101908083116107ec575050505050915050919050565b600082815260008051602061122a833981519152602052604090206003015460008051602061120a83398151915290610b735760405162461bcd60e51b8152600401610281906111c7565b6000828152601282016020526040902054610bc35760405162461bcd60e51b815260206004820152601060248201526f115cd8dc9bddc81b9bdd08199bdd5b9960821b6044820152606401610281565b6000828152601282016020526040902060018101546001600160a01b0316331480610bfa575060028101546001600160a01b031633145b80610c11575060038101546001600160a01b031633145b610c4e5760405162461bcd60e51b815260206004820152600e60248201526d139bdd08185d5d1a1bdc9a5e995960921b6044820152606401610281565b6000848152601a830160209081526040808320600501869055858352601c85018252808320805460018101825590845291832090910186905551849186917f8320ec8c644e467b08799270644509fbd3560e4394297e37eb4e0d34325bc8ed9190a350505050565b634e487b7160e01b600052604160045260246000fd5b604051601f8201601f1916810167ffffffffffffffff81118282101715610cf557610cf5610cb6565b604052919050565b803560078110610d0c57600080fd5b919050565b600080600060608486031215610d2657600080fd5b8335925060208085013567ffffffffffffffff80821115610d4657600080fd5b818701915087601f830112610d5a57600080fd5b813581811115610d6c57610d6c610cb6565b610d7e601f8201601f19168501610ccc565b91508082528884828501011115610d9457600080fd5b8084840185840137600084828401015250809450505050610db760408501610cfd565b90509250925092565b600060208284031215610dd257600080fd5b5035919050565b60008060408385031215610dec57600080fd5b50508035926020909101359150565b6020808252825182820181905260009190848201906040850190845b81811015610e3357835183529284019291840191600101610e17565b50909695505050505050565b60006020808385031215610e5257600080fd5b823567ffffffffffffffff80821115610e6a57600080fd5b818501915085601f830112610e7e57600080fd5b813581811115610e9057610e90610cb6565b8060051b9150610ea1848301610ccc565b8181529183018401918481019088841115610ebb57600080fd5b938501935b83851015610ed957843582529385019390850190610ec0565b98975050505050505050565b6020808252825182820181905260009190848201906040850190845b81811015610e33578351151583529284019291840191600101610f01565b600060208284031215610f3157600080fd5b81356001600160a01b0381168114610f4857600080fd5b9392505050565b6000815180845260005b81811015610f7557602081850181015186830182015201610f59565b506000602082860101526020601f19601f83011685010191505092915050565b634e487b7160e01b600052602160045260246000fd5b60078110610fc957634e487b7160e01b600052602160045260246000fd5b9052565b60006101008a8352806020840152610fe78184018b610f4f565b6001600160a01b038a16604085015260608401899052915061100e90506080830187610fab565b8460a08301528360c083015282151560e08301529998505050505050505050565b600181811c9082168061104357607f821691505b60208210810361106357634e487b7160e01b600052602260045260246000fd5b50919050565b601f8211156110b357600081815260208120601f850160051c810160208610156110905750805b601f850160051c820191505b818110156110af5782815560010161109c565b5050505b505050565b815167ffffffffffffffff8111156110d2576110d2610cb6565b6110e6816110e0845461102f565b84611069565b602080601f83116001811461111b57600084156111035750858301515b600019600386901b1c1916600185901b1785556110af565b600085815260208120601f198616915b8281101561114a5788860151825594840194600190910190840161112b565b50858210156111685787850151600019600388901b60f8161c191681555b5050505050600190811b01905550565b60006001820161119857634e487b7160e01b600052601160045260246000fd5b5060010190565b6111a98184610fab565b6040602082015260006111bf6040830184610f4f565b949350505050565b602080825260129082015271111bd8dd5b595b9d081b9bdd08199bdd5b9960721b604082015260600190565b634e487b7160e01b600052603260045260246000fdfe57d46e9702633ba0957a07facf7593cb3892767d932b512aa03794e4a217d01d57d46e9702633ba0957a07facf7593cb3892767d932b512aa03794e4a217d037a264697066735822122080a5e932eaa592bf01b84e2432fb3afc44e55a852fc57a076fc485dc452bcb4964736f6c63430008140033",
  "linkReferences": {},
  "deployedLinkReferences": {}
}