{
  "_format": "hh-sol-artifact-1",
  "contractName": "EscrowFacet",
  "sourceName": "src/facets/EscrowFacet.sol",
  "abi": [
    {
      "inputs": [
        {
          "internalType": "address",
          "name": "token",
          "type": "address"
        }
      ],
      "name": "SafeERC20FailedOperation",
      "type": "error"
    },
    {
      "anonymous": false,
      "inputs": [
        {
          "indexed": true,
          "internalType": "uint256",
          "name": "escrowId",
          "type": "uint256"
        },
        {
          "indexed": true,
          "internalType": "address",
          "name": "initiator",
          "type": "address"
        },
        {
          "indexed": false,
          "internalType": "string",
          "name": "reason",
          "type": "string"
        }
      ],
      "name": "DisputeRaised",
      "type": "event"
    },
    {
      "anonymous": false,
      "inputs": [
        {
          "indexed": true,
          "internalType": "uint256",
          "name": "escrowId",
          "type": "uint256"
        },
        {
          "indexed": true,
          "internalType": "address",
          "name": "arbitrator",
          "type": "address"
        }
      ],
      "name": "DisputeResolved",
      "type": "event"
    },
    {
      "anonymous": false,
      "inputs": [
        {
          "indexed": true,
          "internalType": "uint256",
          "name": "escrowId",
          "type": "uint256"
        },
        {
          "indexed": true,
          "internalType": "address",
          "name": "importer",
          "type": "address"
        },
        {
          "indexed": true,
          "internalType": "address",
          "name": "exporter",
          "type": "address"
        },
        {
          "indexed": false,
          "internalType": "address",
          "name": "arbitrator",
          "type": "address"
        },
        {
          "indexed": false,
          "internalType": "uint256",
          "name": "totalAmount",
          "type": "uint256"
        }
      ],
      "name": "EscrowCreated",
      "type": "event"
    },
    {
      "anonymous": false,
      "inputs": [
        {
          "indexed": true,
          "internalType": "uint256",
          "name": "escrowId",
          "type": "uint256"
        },
        {
          "indexed": false,
          "internalType": "uint256",
          "name": "amount",
          "type": "uint256"
        }
      ],
      "name": "FundsDeposited",
      "type": "event"
    },
    {
      "anonymous": false,
      "inputs": [
        {
          "indexed": true,
          "internalType": "uint256",
          "name": "escrowId",
          "type": "uint256"
        },
        {
          "indexed": false,
          "internalType": "uint256",
          "name": "milestoneIndex",
          "type": "uint256"
        }
      ],
      "name": "MilestoneCompleted",
      "type": "event"
    },
    {
      "anonymous": false,
      "inputs": [
        {
          "indexed": true,
          "internalType": "uint256",
          "name": "escrowId",
          "type": "uint256"
        },
        {
          "indexed": false,
          "internalType": "uint256",
          "name": "milestoneIndex",
          "type": "uint256"
        },
        {
          "indexed": false,
          "internalType": "uint256",
          "name": "amount",
          "type": "uint256"
        }
      ],
      "name": "MilestoneReleased",
      "type": "event"
    },
    {
      "anonymous": false,
      "inputs": [
        {
          "indexed": true,
          "internalType": "uint256",
          "name": "escrowId",
          "type": "uint256"
        },
        {
          "indexed": false,
          "internalType": "address",
          "name": "wallet",
          "type": "address"
        },
        {
          "indexed": false,
          "internalType": "string",
          "name": "role",
          "type": "string"
        }
      ],
      "name": "SubWalletAdded",
      "type": "event"
    },
    {
      "inputs": [
        {
          "internalType": "uint256",
          "name": "_escrowId",
          "type": "uint256"
        },
        {
          "internalType": "address",
          "name": "_walletAddress",
          "type": "address"
        },
        {
          "internalType": "string",
          "name": "_role",
          "type": "string"
        },
        {
          "internalType": "string[]",
          "name": "_permissions",
          "type": "string[]"
        }
      ],
      "name": "addSubWallet",
      "outputs": [],
      "stateMutability": "nonpayable",
      "type": "function"
    },
    {
      "inputs": [
        {
          "internalType": "uint256",
          "name": "_escrowId",
          "type": "uint256"
        },
        {
          "internalType": "uint256",
          "name": "_milestoneIndex",
          "type": "uint256"
        }
      ],
      "name": "completeMilestone",
      "outputs": [],
      "stateMutability": "nonpayable",
      "type": "function"
    },
    {
      "inputs": [
        {
          "internalType": "address",
          "name": "_exporter",
          "type": "address"
        },
        {
          "internalType": "address",
          "name": "_arbitrator",
          "type": "address"
        },
        {
          "internalType": "uint256",
          "name": "_arbitratorFee",
          "type": "uint256"
        },
        {
          "internalType": "uint256",
          "name": "_deadline",
          "type": "uint256"
        },
        {
          "internalType": "string",
          "name": "_description",
          "type": "string"
        },
        {
          "internalType": "string",
          "name": "_termsHash",
          "type": "string"
        },
        {
          "internalType": "string[]",
          "name": "_milestonesTitles",
          "type": "string[]"
        },
        {
          "internalType": "string[]",
          "name": "_milestonesDescriptions",
          "type": "string[]"
        },
        {
          "internalType": "uint256[]",
          "name": "_milestonesAmounts",
          "type": "uint256[]"
        },
        {
          "internalType": "uint256[]",
          "name": "_milestonesDueDates",
          "type": "uint256[]"
        },
        {
          "internalType": "address",
          "name": "_tokenAddress",
          "type": "address"
        }
      ],
      "name": "createEscrow",
      "outputs": [
        {
          "internalType": "uint256",
          "name": "",
          "type": "uint256"
        }
      ],
      "stateMutability": "payable",
      "type": "function"
    },
    {
      "inputs": [
        {
          "internalType": "uint256",
          "name": "_escrowId",
          "type": "uint256"
        }
      ],
      "name": "getEscrowDetails",
      "outputs": [
        {
          "internalType": "address",
          "name": "importer",
          "type": "address"
        },
        {
          "internalType": "address",
          "name": "exporter",
          "type": "address"
        },
        {
          "internalType": "address",
          "name": "arbitrator",
          "type": "address"
        },
        {
          "internalType": "uint256",
          "name": "totalAmount",
          "type": "uint256"
        },
        {
          "internalType": "uint256",
          "name": "releasedAmount",
          "type": "uint256"
        },
        {
          "internalType": "uint256",
          "name": "arbitratorFee",
          "type": "uint256"
        },
        {
          "internalType": "uint256",
          "name": "deadline",
          "type": "uint256"
        },
        {
          "internalType": "enum LibAppStorage.EscrowStatus",
          "name": "status",
          "type": "uint8"
        },
        {
          "internalType": "enum LibAppStorage.DisputeStatus",
          "name": "disputeStatus",
          "type": "uint8"
        },
        {
          "internalType": "string",
          "name": "description",
          "type": "string"
        },
        {
          "internalType": "string",
          "name": "termsHash",
          "type": "string"
        }
      ],
      "stateMutability": "view",
      "type": "function"
    },
    {
      "inputs": [],
      "name": "getEscrowStats",
      "outputs": [
        {
          "internalType": "uint256",
          "name": "totalEscrows",
          "type": "uint256"
        },
        {
          "internalType": "uint256",
          "name": "activeEscrows",
          "type": "uint256"
        },
        {
          "internalType": "uint256",
          "name": "completedEscrows",
          "type": "uint256"
        }
      ],
      "stateMutability": "view",
      "type": "function"
    },
    {
      "inputs": [
        {
          "internalType": "uint256",
          "name": "_escrowId",
          "type": "uint256"
        },
        {
          "internalType": "uint256",
          "name": "_index",
          "type": "uint256"
        }
      ],
      "name": "getMilestone",
      "outputs": [
        {
          "internalType": "string",
          "name": "title",
          "type": "string"
        },
        {
          "internalType": "string",
          "name": "description",
          "type": "string"
        },
        {
          "internalType": "uint256",
          "name": "amount",
          "type": "uint256"
        },
        {
          "internalType": "uint256",
          "name": "dueDate",
          "type": "uint256"
        },
        {
          "internalType": "enum LibAppStorage.MilestoneStatus",
          "name": "status",
          "type": "uint8"
        },
        {
          "internalType": "bool",
          "name": "released",
          "type": "bool"
        }
      ],
      "stateMutability": "view",
      "type": "function"
    },
    {
      "inputs": [
        {
          "internalType": "uint256",
          "name": "_escrowId",
          "type": "uint256"
        }
      ],
      "name": "getMilestones",
      "outputs": [
        {
          "components": [
            {
              "internalType": "string",
              "name": "title",
              "type": "string"
            },
            {
              "internalType": "string",
              "name": "description",
              "type": "string"
            },
            {
              "internalType": "uint256",
              "name": "amount",
              "type": "uint256"
            },
            {
              "internalType": "uint256",
              "name": "dueDate",
              "type": "uint256"
            },
            {
              "internalType": "enum LibAppStorage.MilestoneStatus",
              "name": "status",
              "type": "uint8"
            },
            {
              "internalType": "bool",
              "name": "released",
              "type": "bool"
            }
          ],
          "internalType": "struct LibAppStorage.Milestone[]",
          "name": "",
          "type": "tuple[]"
        }
      ],
      "stateMutability": "view",
      "type": "function"
    },
    {
      "inputs": [
        {
          "internalType": "uint256",
          "name": "_escrowId",
          "type": "uint256"
        }
      ],
      "name": "getSubWallets",
      "outputs": [
        {
          "internalType": "address[]",
          "name": "",
          "type": "address[]"
        }
      ],
      "stateMutability": "view",
      "type": "function"
    },
    {
      "inputs": [
        {
          "internalType": "uint256",
          "name": "_escrowId",
          "type": "uint256"
        },
        {
          "internalType": "address",
          "name": "_wallet",
          "type": "address"
        },
        {
          "internalType": "string",
          "name": "_permission",
          "type": "string"
        }
      ],
      "name": "hasPermission",
      "outputs": [
        {
          "internalType": "bool",
          "name": "",
          "type": "bool"
        }
      ],
      "stateMutability": "view",
      "type": "function"
    },
    {
      "inputs": [
        {
          "internalType": "uint256",
          "name": "_escrowId",
          "type": "uint256"
        },
        {
          "internalType": "string",
          "name": "_reason",
          "type": "string"
        }
      ],
      "name": "raiseDispute",
      "outputs": [],
      "stateMutability": "nonpayable",
      "type": "function"
    },
    {
      "inputs": [
        {
          "internalType": "uint256",
          "name": "_escrowId",
          "type": "uint256"
        },
        {
          "internalType": "uint256",
          "name": "_milestoneIndex",
          "type": "uint256"
        }
      ],
      "name": "releaseMilestonePayment",
      "outputs": [],
      "stateMutability": "nonpayable",
      "type": "function"
    },
    {
      "inputs": [
        {
          "internalType": "uint256",
          "name": "_escrowId",
          "type": "uint256"
        },
        {
          "internalType": "uint256[]",
          "name": "_milestoneIndexes",
          "type": "uint256[]"
        },
        {
          "internalType": "bool[]",
          "name": "_releaseToExporter",
          "type": "bool[]"
        }
      ],
      "name": "resolveDispute",
      "outputs": [],
      "stateMutability": "nonpayable",
      "type": "function"
    }
  ],
  "bytecode": "0x608060405234801561001057600080fd5b506129f7806100206000396000f3fe6080604052600436106100a75760003560e01c80638ed9895c116100645780638ed9895c14610181578063acff2b09146101b3578063b996ec2a146101e3578063d05bd3b11461021a578063dee233d31461024a578063f326206b1461027757600080fd5b80631735aa53146100ac57806322e88db1146100d257806342c549c0146100f45780635aef573c1461012157806372e3f305146101415780638c936e6514610161575b600080fd5b6100bf6100ba36600461213b565b610297565b6040519081526020015b60405180910390f35b3480156100de57600080fd5b506100f26100ed366004612283565b610546565b005b34801561010057600080fd5b5061011461010f366004612301565b610737565b6040516100c9919061238a565b34801561012d57600080fd5b506100f261013c366004612447565b61093e565b34801561014d57600080fd5b506100f261015c36600461248e565b610aa4565b34801561016d57600080fd5b506100f261017c366004612560565b610e3d565b34801561018d57600080fd5b506101a161019c366004612560565b61123b565b6040516100c996959493929190612582565b3480156101bf57600080fd5b506101c86113e7565b604080519384526020840192909252908201526060016100c9565b3480156101ef57600080fd5b506102036101fe366004612301565b611458565b6040516100c99b9a999897969594939291906125e6565b34801561022657600080fd5b5061023a610235366004612681565b611633565b60405190151581526020016100c9565b34801561025657600080fd5b5061026a610265366004612301565b6117dd565b6040516100c991906126d8565b34801561028357600080fd5b506100f2610292366004612560565b61186d565b60006000805160206129828339815191526001600160a01b038d166102f65760405162461bcd60e51b815260206004820152601060248201526f24b73b30b634b21032bc3837b93a32b960811b60448201526064015b60405180910390fd5b6001600160a01b038c166103415760405162461bcd60e51b815260206004820152601260248201527124b73b30b634b21030b93134ba3930ba37b960711b60448201526064016102ed565b428a116103835760405162461bcd60e51b815260206004820152601060248201526f496e76616c696420646561646c696e6560801b60448201526064016102ed565b84518751146103c95760405162461bcd60e51b815260206004820152601260248201527109ad2d8cae6e8dedcca40dad2e6dac2e8c6d60731b60448201526064016102ed565b600081601301600081546103dc9061273b565b919050819055905060008260120160008381526020019081526020016000209050818160000181905550338160010160006101000a8154816001600160a01b0302191690836001600160a01b031602179055508e8160020160006101000a8154816001600160a01b0302191690836001600160a01b031602179055508d8160030160006101000a8154816001600160a01b0302191690836001600160a01b031602179055508c61048b88611a42565b6104959190612754565b600482015560006005820155600681018d9055600781018c90556008810180546001600160b01b0319166001600160a01b038716179055600981016104da8c826127ed565b50600a81016104e98b826127ed565b506104f7818a8a8a8a611a90565b6014830180549060006105098361273b565b90915550506015830180549060006105208361273b565b919050555061053481868360040154611bfc565b509d9c50505050505050505050505050565b60008481526000805160206129a283398151915260205260409020805460008051602061298283398151915291906105905760405162461bcd60e51b81526004016102ed906128ad565b60018101546001600160a01b03163314806105b7575060028101546001600160a01b031633145b806105ce575060038101546001600160a01b031633145b61060b5760405162461bcd60e51b815260206004820152600e60248201526d139bdd08185d5d1a1bdc9a5e995960921b60448201526064016102ed565b6001600160a01b0385166000908152600d8201602052604090205460ff16156106665760405162461bcd60e51b815260206004820152600d60248201526c105b1c9958591e481859191959609a1b60448201526064016102ed565b600c81018054600180820183556000928352602080842090920180546001600160a01b0319166001600160a01b038a169081179091558352600d840182526040808420805460ff1916909217909155600e840190915290206106c885826127ed565b506001600160a01b0385166000908152600f82016020908152604090912084516106f492860190611e94565b50857f55eec2b6f6b3ae0b398678d51466e3c98207db4916214a38a3a221b29e22b0fa86866040516107279291906128d7565b60405180910390a2505050505050565b60008181526000805160206129a283398151915260209081526040808320600b0180548251818502810185019093528083526060946000805160206129828339815191529484015b8282101561093257838290600052602060002090600502016040518060c00160405290816000820180546107b29061276d565b80601f01602080910402602001604051908101604052809291908181526020018280546107de9061276d565b801561082b5780601f106108005761010080835404028352916020019161082b565b820191906000526020600020905b81548152906001019060200180831161080e57829003601f168201915b505050505081526020016001820180546108449061276d565b80601f01602080910402602001604051908101604052809291908181526020018280546108709061276d565b80156108bd5780601f10610892576101008083540402835291602001916108bd565b820191906000526020600020905b8154815290600101906020018083116108a057829003601f168201915b5050509183525050600282810154602083015260038301546040830152600483015460609092019160ff16908111156108f8576108f8612360565b600281111561090957610909612360565b815260049190910154610100900460ff161515602091820152908252600192909201910161077f565b50505050915050919050565b60008281526000805160206129a283398151915260205260409020805460008051602061298283398151915291906109885760405162461bcd60e51b81526004016102ed906128ad565b60018101546001600160a01b03163314806109af575060028101546001600160a01b031633145b6109ec5760405162461bcd60e51b815260206004820152600e60248201526d139bdd08185d5d1a1bdc9a5e995960921b60448201526064016102ed565b60006008820154600160a81b900460ff166003811115610a0e57610a0e612360565b14610a4c5760405162461bcd60e51b815260206004820152600e60248201526d446973707574652065786973747360901b60448201526064016102ed565b60088101805461ffff60a01b1916604160a21b179055604051339085907f1b84372106d77c6daea0dda35bbc0229d10a83f58ec89909288492519368234190610a96908790612903565b60405180910390a350505050565b60008381526000805160206129a28339815191526020526040902080546000805160206129828339815191529190610aee5760405162461bcd60e51b81526004016102ed906128ad565b60038101546001600160a01b03163314610b3b5760405162461bcd60e51b815260206004820152600e60248201526d2737ba1030b93134ba3930ba37b960911b60448201526064016102ed565b60016008820154600160a81b900460ff166003811115610b5d57610b5d612360565b14610b9e5760405162461bcd60e51b81526020600482015260116024820152704e6f20616374697665206469737075746560781b60448201526064016102ed565b8251845114610be05760405162461bcd60e51b815260206004820152600e60248201526d082e4e4c2f240dad2e6dac2e8c6d60931b60448201526064016102ed565b60005b8451811015610d7f576000858281518110610c0057610c00612916565b6020026020010151905082600b01805490508110610c305760405162461bcd60e51b81526004016102ed9061292c565b82600b018181548110610c4557610c45612916565b906000526020600020906005020160040160019054906101000a900460ff16610d6c57600083600b018281548110610c7f57610c7f612916565b90600052602060002090600502016002015490506000868481518110610ca757610ca7612916565b6020026020010151610cc65760018501546001600160a01b0316610cd5565b60028501546001600160a01b03165b9050600185600b018481548110610cee57610cee612916565b906000526020600020906005020160040160016101000a81548160ff02191690831515021790555081856005016000828254610d2a9190612754565b909155505060088501546001600160a01b0316610d5057610d4b8183611ce7565b610d69565b6008850154610d69906001600160a01b03168284611d85565b50505b5080610d778161273b565b915050610be3565b5060088101805461ffff60a01b191661030360a01b179055601582018054906000610da983612957565b909155505060088101546001600160a01b0316610de25760038101546006820154610ddd916001600160a01b031690611ce7565b610e09565b600381015460068201546008830154610e09926001600160a01b0391821692911690611d85565b604051339086907ff77ceb5e091d2da041bc760667f9d5fe7a756949eaf29250ad0e60ca6f4c27d990600090a35050505050565b60008281526000805160206129a28339815191526020526040902080546000805160206129828339815191529190610e875760405162461bcd60e51b81526004016102ed906128ad565b60018101546001600160a01b03163314610ed25760405162461bcd60e51b815260206004820152600c60248201526b2737ba1034b6b837b93a32b960a11b60448201526064016102ed565b600b8101548310610ef55760405162461bcd60e51b81526004016102ed9061292c565b600181600b018481548110610f0c57610f0c612916565b600091825260209091206004600590920201015460ff166002811115610f3457610f34612360565b14610f815760405162461bcd60e51b815260206004820152601760248201527f4d696c6573746f6e65206e6f7420636f6d706c6574656400000000000000000060448201526064016102ed565b80600b018381548110610f9657610f96612916565b906000526020600020906005020160040160019054906101000a900460ff1615610ff55760405162461bcd60e51b815260206004820152601060248201526f105b1c9958591e481c995b19585cd95960821b60448201526064016102ed565b600081600b01848154811061100c5761100c612916565b9060005260206000209060050201600201549050600182600b01858154811061103757611037612916565b906000526020600020906005020160040160016101000a81548160ff021916908315150217905550600282600b01858154811061107657611076612916565b60009182526020909120600460059092020101805460ff191660018360028111156110a3576110a3612360565b0217905550808260050160008282546110bc9190612754565b909155505060088201546001600160a01b03166110f05760028201546110eb906001600160a01b031682611ce7565b611111565b60028201546008830154611111916001600160a01b03918216911683611d85565b600160005b600b8401548110156111755783600b01818154811061113757611137612916565b906000526020600020906005020160040160019054906101000a900460ff166111635760009150611175565b8061116d8161273b565b915050611116565b5080156112035760088301805460ff60a01b1916600360a01b1790556015840180549060006111a383612957565b909155505060088301546001600160a01b03166111dc57600383015460068401546111d7916001600160a01b031690611ce7565b611203565b600383015460068401546008850154611203926001600160a01b0391821692911690611d85565b604080518681526020810184905287917fd33fcd27cbfb73a2d9058c968b560ccb306500bf536133802048489ecc7355e99101610727565b60608060008080808060008051602061298283398151915260008a81526012820160205260408120600b01805492935090918a90811061127d5761127d612916565b60009182526020909120600590910201600281015460038201546004830154835493945084936001850193929160ff80821692610100909204169086906112c39061276d565b80601f01602080910402602001604051908101604052809291908181526020018280546112ef9061276d565b801561133c5780601f106113115761010080835404028352916020019161133c565b820191906000526020600020905b81548152906001019060200180831161131f57829003601f168201915b5050505050955084805461134f9061276d565b80601f016020809104026020016040519081016040528092919081815260200182805461137b9061276d565b80156113c85780601f1061139d576101008083540402835291602001916113c8565b820191906000526020600020905b8154815290600101906020018083116113ab57829003601f168201915b5050505050945097509750975097509750975050509295509295509295565b7f57d46e9702633ba0957a07facf7593cb3892767d932b512aa03794e4a217d031547f57d46e9702633ba0957a07facf7593cb3892767d932b512aa03794e4a217d03254600091829182916000805160206129828339815191529161144c818361296e565b93509350935050909192565b60008181526000805160206129a283398151915260205260408120600181015460028201546003830154600484015460058501546006860154600787015460088801546009890180548b9a8b9a8b9a8b9a8b9a8b9a8b9a8b9a60609a8b9a6000805160206129828339815191529a6001600160a01b03998a1699988916989097169660ff600160a01b8404811693600160a81b9004169190600a8c019082906115009061276d565b80601f016020809104026020016040519081016040528092919081815260200182805461152c9061276d565b80156115795780601f1061154e57610100808354040283529160200191611579565b820191906000526020600020905b81548152906001019060200180831161155c57829003601f168201915b5050505050915080805461158c9061276d565b80601f01602080910402602001604051908101604052809291908181526020018280546115b89061276d565b80156116055780601f106115da57610100808354040283529160200191611605565b820191906000526020600020905b8154815290600101906020018083116115e857829003601f168201915b505050505090509c509c509c509c509c509c509c509c509c509c509c50505091939597999b90929496989a50565b60008381526000805160206129a2833981519152602090815260408083206001600160a01b0386168452600d8101909252822054600080516020612982833981519152919060ff1661168a576000925050506117d6565b6001600160a01b0385166000908152600f82016020908152604080832080548251818502810185019093528083529192909190849084015b8282101561176e5783829060005260206000200180546116e19061276d565b80601f016020809104026020016040519081016040528092919081815260200182805461170d9061276d565b801561175a5780601f1061172f5761010080835404028352916020019161175a565b820191906000526020600020905b81548152906001019060200180831161173d57829003601f168201915b5050505050815260200190600101906116c2565b50505050905060005b81518110156117cd57858051906020012082828151811061179a5761179a612916565b602002602001015180519060200120036117bb5760019450505050506117d6565b806117c58161273b565b915050611777565b50600093505050505b9392505050565b60008181526000805160206129a28339815191526020908152604091829020600c018054835181840281018401909452808452606093600080516020612982833981519152939092919083018282801561186057602002820191906000526020600020905b81546001600160a01b03168152600190910190602001808311611842575b5050505050915050919050565b60008281526000805160206129a283398151915260205260409020805460008051602061298283398151915291906118b75760405162461bcd60e51b81526004016102ed906128ad565b60028101546001600160a01b031633146119025760405162461bcd60e51b815260206004820152600c60248201526b2737ba1032bc3837b93a32b960a11b60448201526064016102ed565b600b81015483106119255760405162461bcd60e51b81526004016102ed9061292c565b600081600b01848154811061193c5761193c612916565b600091825260209091206004600590920201015460ff16600281111561196457611964612360565b146119a95760405162461bcd60e51b81526020600482015260156024820152744d696c6573746f6e65206e6f742070656e64696e6760581b60448201526064016102ed565b600181600b0184815481106119c0576119c0612916565b60009182526020909120600460059092020101805460ff191660018360028111156119ed576119ed612360565b021790555060088101805460ff60a01b1916600160a11b17905560405183815284907f1b7218c0ac23ea9cbe4df603d2b340fbf469a115b73ea3d11460727f445d6be19060200160405180910390a250505050565b600080805b8351811015611a8957838181518110611a6257611a62612916565b602002602001015182611a759190612754565b915080611a818161273b565b915050611a47565b5092915050565b60005b8451811015611bf45785600b016040518060c00160405280878481518110611abd57611abd612916565b60200260200101518152602001868481518110611adc57611adc612916565b60200260200101518152602001858481518110611afb57611afb612916565b60200260200101518152602001848481518110611b1a57611b1a612916565b6020026020010151815260200160006002811115611b3a57611b3a612360565b8152600060209182018190528354600181018555938152208151919260050201908190611b6790826127ed565b5060208201516001820190611b7c90826127ed565b50604082015181600201556060820151816003015560808201518160040160006101000a81548160ff02191690836002811115611bbb57611bbb612360565b021790555060a09190910151600490910180549115156101000261ff001990921691909117905580611bec8161273b565b915050611a93565b505050505050565b6001600160a01b038216611c5557803414611c505760405162461bcd60e51b8152602060048201526014602482015273125b98dbdc9c9958dd0811551208185b5bdd5b9d60621b60448201526064016102ed565b611c6a565b611c6a6001600160a01b038316333084611de4565b60088301805460ff60a01b1916600160a01b17905560028301546001840154845460038601546004870154604080516001600160a01b039384168152602081019290925280519583169592909416937fcaf993c592f602a7d225c8556e07d471f93e7c0f2609647024e59018f5a521ac92918290030190a4505050565b6000826001600160a01b03168260405160006040518083038185875af1925050503d8060008114611d34576040519150601f19603f3d011682016040523d82523d6000602084013e611d39565b606091505b5050905080611d805760405162461bcd60e51b8152602060048201526013602482015272115512081d1c985b9cd9995c8819985a5b1959606a1b60448201526064016102ed565b505050565b6040516001600160a01b03838116602483015260448201839052611d8091859182169063a9059cbb906064015b604051602081830303815290604052915060e01b6020820180516001600160e01b038381831617835250505050611e23565b6040516001600160a01b038481166024830152838116604483015260648201839052611e1d9186918216906323b872dd90608401611db2565b50505050565b600080602060008451602086016000885af180611e46576040513d6000823e3d81fd5b50506000513d91508115611e5e578060011415611e6b565b6001600160a01b0384163b155b15611e1d57604051635274afe760e01b81526001600160a01b03851660048201526024016102ed565b828054828255906000526020600020908101928215611eda579160200282015b82811115611eda5782518290611eca90826127ed565b5091602001919060010190611eb4565b50611ee6929150611eea565b5090565b80821115611ee6576000611efe8282611f07565b50600101611eea565b508054611f139061276d565b6000825580601f10611f23575050565b601f016020900490600052602060002090810190611f419190611f44565b50565b5b80821115611ee65760008155600101611f45565b80356001600160a01b0381168114611f7057600080fd5b919050565b634e487b7160e01b600052604160045260246000fd5b604051601f8201601f1916810167ffffffffffffffff81118282101715611fb457611fb4611f75565b604052919050565b600082601f830112611fcd57600080fd5b813567ffffffffffffffff811115611fe757611fe7611f75565b611ffa601f8201601f1916602001611f8b565b81815284602083860101111561200f57600080fd5b816020850160208301376000918101602001919091529392505050565b600067ffffffffffffffff82111561204657612046611f75565b5060051b60200190565b600082601f83011261206157600080fd5b813560206120766120718361202c565b611f8b565b82815260059290921b8401810191818101908684111561209557600080fd5b8286015b848110156120d557803567ffffffffffffffff8111156120b95760008081fd5b6120c78986838b0101611fbc565b845250918301918301612099565b509695505050505050565b600082601f8301126120f157600080fd5b813560206121016120718361202c565b82815260059290921b8401810191818101908684111561212057600080fd5b8286015b848110156120d55780358352918301918301612124565b60008060008060008060008060008060006101608c8e03121561215d57600080fd5b6121668c611f59565b9a5061217460208d01611f59565b995060408c0135985060608c0135975067ffffffffffffffff8060808e0135111561219e57600080fd5b6121ae8e60808f01358f01611fbc565b97508060a08e013511156121c157600080fd5b6121d18e60a08f01358f01611fbc565b96508060c08e013511156121e457600080fd5b6121f48e60c08f01358f01612050565b95508060e08e0135111561220757600080fd5b6122178e60e08f01358f01612050565b9450806101008e0135111561222b57600080fd5b61223c8e6101008f01358f016120e0565b9350806101208e0135111561225057600080fd5b506122628d6101208e01358e016120e0565b91506122716101408d01611f59565b90509295989b509295989b9093969950565b6000806000806080858703121561229957600080fd5b843593506122a960208601611f59565b9250604085013567ffffffffffffffff808211156122c657600080fd5b6122d288838901611fbc565b935060608701359150808211156122e857600080fd5b506122f587828801612050565b91505092959194509250565b60006020828403121561231357600080fd5b5035919050565b6000815180845260005b8181101561234057602081850181015186830182015201612324565b506000602082860101526020601f19601f83011685010191505092915050565b634e487b7160e01b600052602160045260246000fd5b6003811061238657612386612360565b9052565b60006020808301818452808551808352604092508286019150828160051b87010184880160005b8381101561243957603f19898403018552815160c081518186526123d78287018261231a565b915050888201518582038a8701526123ef828261231a565b9150508782015188860152606080830151818701525060808083015161241782880182612376565b505060a0918201511515949091019390935293860193908601906001016123b1565b509098975050505050505050565b6000806040838503121561245a57600080fd5b82359150602083013567ffffffffffffffff81111561247857600080fd5b61248485828601611fbc565b9150509250929050565b6000806000606084860312156124a357600080fd5b8335925060208085013567ffffffffffffffff808211156124c357600080fd5b6124cf888389016120e0565b945060408701359150808211156124e557600080fd5b508501601f810187136124f757600080fd5b80356125056120718261202c565b81815260059190911b8201830190838101908983111561252457600080fd5b928401925b8284101561255157833580151581146125425760008081fd5b82529284019290840190612529565b80955050505050509250925092565b6000806040838503121561257357600080fd5b50508035926020909101359150565b60c08152600061259560c083018961231a565b82810360208401526125a7818961231a565b9150508560408301528460608301526125c36080830185612376565b82151560a0830152979650505050505050565b6004811061238657612386612360565b6001600160a01b038c811682528b811660208301528a166040820152606081018990526080810188905260a0810187905260c0810186905260006101606006871061263357612633612360565b8660e08401526126476101008401876125d6565b8061012084015261265a8184018661231a565b905082810361014084015261266f818561231a565b9e9d5050505050505050505050505050565b60008060006060848603121561269657600080fd5b833592506126a660208501611f59565b9150604084013567ffffffffffffffff8111156126c257600080fd5b6126ce86828701611fbc565b9150509250925092565b6020808252825182820181905260009190848201906040850190845b818110156127195783516001600160a01b0316835292840192918401916001016126f4565b50909695505050505050565b634e487b7160e01b600052601160045260246000fd5b60006001820161274d5761274d612725565b5060010190565b8082018082111561276757612767612725565b92915050565b600181811c9082168061278157607f821691505b6020821081036127a157634e487b7160e01b600052602260045260246000fd5b50919050565b601f821115611d8057600081815260208120601f850160051c810160208610156127ce5750805b601f850160051c820191505b81811015611bf4578281556001016127da565b815167ffffffffffffffff81111561280757612807611f75565b61281b81612815845461276d565b846127a7565b602080601f83116001811461285057600084156128385750858301515b600019600386901b1c1916600185901b178555611bf4565b600085815260208120601f198616915b8281101561287f57888601518255948401946001909101908401612860565b508582101561289d5787850151600019600388901b60f8161c191681555b5050505050600190811b01905550565b60208082526010908201526f115cd8dc9bddc81b9bdd08199bdd5b9960821b604082015260600190565b6001600160a01b03831681526040602082018190526000906128fb9083018461231a565b949350505050565b6020815260006117d6602083018461231a565b634e487b7160e01b600052603260045260246000fd5b602080825260119082015270496e76616c6964206d696c6573746f6e6560781b604082015260600190565b60008161296657612966612725565b506000190190565b818103818111156127675761276761272556fe57d46e9702633ba0957a07facf7593cb3892767d932b512aa03794e4a217d01d57d46e9702633ba0957a07facf7593cb3892767d932b512aa03794e4a217d02fa2646970667358221220102f0a1590fe6c41978ec3b26ed4aa3596a255f0a77feb674c6674145c81cd8a64736f6c63430008140033",
  "linkReferences": {},
  "deployedLinkReferences": {}
}