{
  "_format": "hh-sol-artifact-1",
  "contractName": "LiquidityPoolFacet",
  "sourceName": "src/facets/LiquidityPoolFacet.sol",
  "abi": [
    {
      "inputs": [
        {
          "internalType": "address",
          "name": "token",
          "type": "address"
        }
      ],
      "name": "SafeERC20FailedOperation",
      "type": "error"
    },
    {
      "anonymous": false,
      "inputs": [
        {
          "indexed": true,
          "internalType": "address",
          "name": "staker",
          "type": "address"
        },
        {
          "indexed": false,
          "internalType": "uint256",
          "name": "amount",
          "type": "uint256"
        }
      ],
      "name": "RewardsDistributed",
      "type": "event"
    },
    {
      "anonymous": false,
      "inputs": [
        {
          "indexed": true,
          "internalType": "address",
          "name": "staker",
          "type": "address"
        },
        {
          "indexed": false,
          "internalType": "uint256",
          "name": "amount",
          "type": "uint256"
        },
        {
          "indexed": false,
          "internalType": "uint256",
          "name": "votingPower",
          "type": "uint256"
        }
      ],
      "name": "Staked",
      "type": "event"
    },
    {
      "anonymous": false,
      "inputs": [
        {
          "indexed": true,
          "internalType": "address",
          "name": "staker",
          "type": "address"
        },
        {
          "indexed": false,
          "internalType": "uint256",
          "name": "amount",
          "type": "uint256"
        }
      ],
      "name": "Unstaked",
      "type": "event"
    },
    {
      "inputs": [
        {
          "internalType": "address",
          "name": "staker",
          "type": "address"
        },
        {
          "internalType": "uint256",
          "name": "amount",
          "type": "uint256"
        }
      ],
      "name": "distributeRewards",
      "outputs": [],
      "stateMutability": "nonpayable",
      "type": "function"
    },
    {
      "inputs": [],
      "name": "getPoolStats",
      "outputs": [
        {
          "internalType": "uint256",
          "name": "totalStaked",
          "type": "uint256"
        },
        {
          "internalType": "uint256",
          "name": "totalLPs",
          "type": "uint256"
        },
        {
          "internalType": "uint256",
          "name": "contractBalance",
          "type": "uint256"
        }
      ],
      "stateMutability": "view",
      "type": "function"
    },
    {
      "inputs": [
        {
          "internalType": "address",
          "name": "staker",
          "type": "address"
        }
      ],
      "name": "getStake",
      "outputs": [
        {
          "internalType": "uint256",
          "name": "amount",
          "type": "uint256"
        },
        {
          "internalType": "uint256",
          "name": "timestamp",
          "type": "uint256"
        },
        {
          "internalType": "uint256",
          "name": "votingPower",
          "type": "uint256"
        },
        {
          "internalType": "bool",
          "name": "active",
          "type": "bool"
        }
      ],
      "stateMutability": "view",
      "type": "function"
    },
    {
      "inputs": [],
      "name": "getStakers",
      "outputs": [
        {
          "internalType": "address[]",
          "name": "",
          "type": "address[]"
        }
      ],
      "stateMutability": "view",
      "type": "function"
    },
    {
      "inputs": [
        {
          "internalType": "uint256",
          "name": "amount",
          "type": "uint256"
        }
      ],
      "name": "stake",
      "outputs": [],
      "stateMutability": "nonpayable",
      "type": "function"
    },
    {
      "inputs": [],
      "name": "unstake",
      "outputs": [],
      "stateMutability": "nonpayable",
      "type": "function"
    }
  ],
  "bytecode": "0x608060405234801561001057600080fd5b50610c66806100206000396000f3fe608060405234801561001057600080fd5b50600436106100625760003560e01c80632def66201461006757806343352d61146100715780637a7664601461008f578063a694fc3a14610136578063a8031a1d14610149578063bbb851881461015c575b600080fd5b61006f61017f565b005b61007961030c565b6040516100869190610a68565b60405180910390f35b61011461009d366004610ad1565b6001600160a01b031660009081527f57d46e9702633ba0957a07facf7593cb3892767d932b512aa03794e4a217d01e6020908152604091829020825160808101845281548082526001830154938201849052600283015494820185905260039092015460ff16151560609091018190529093919291565b6040805194855260208501939093529183015215156060820152608001610086565b61006f610144366004610af3565b61037f565b61006f610157366004610b0c565b61061b565b610164610702565b60408051938452602084019290925290820152606001610086565b3360009081527f57d46e9702633ba0957a07facf7593cb3892767d932b512aa03794e4a217d01e6020526040902060030154600080516020610c118339815191529060ff166102075760405162461bcd60e51b815260206004820152600f60248201526e4e6f20616374697665207374616b6560881b60448201526064015b60405180910390fd5b33600090815260018201602052604090205461025a5760405162461bcd60e51b81526020600482015260126024820152714e6f7468696e6720746f20756e7374616b6560701b60448201526064016101fe565b336000908152600182016020526040812080548282556003808301805460ff191690556002909201839055908301805491928392610299908490610b4c565b90915550506004820180549060006102b083610b65565b91905055506102bd61079d565b81546102d3906001600160a01b031633836108cb565b60405181815233907f0f5bb82176feb1b5e747e28471aa92156a04d9f3ab9f45f28e2d704232b93f759060200160405180910390a25050565b60606000600080516020610c118339815191526002810180546040805160208084028201810190925282815293945083018282801561037457602002820191906000526020600020905b81546001600160a01b03168152600190910190602001808311610356575b505050505091505090565b7f57d46e9702633ba0957a07facf7593cb3892767d932b512aa03794e4a217d02254600080516020610c11833981519152908210156103f65760405162461bcd60e51b815260206004820152601360248201527242656c6f77206d696e696d756d207374616b6560681b60448201526064016101fe565b80546040516370a0823160e01b81523360048201526001600160a01b0390911690839082906370a0823190602401602060405180830381865afa158015610441573d6000803e3d6000fd5b505050506040513d601f19601f820116820180604052508101906104659190610b7c565b10156104aa5760405162461bcd60e51b8152602060048201526014602482015273496e73756666696369656e742062616c616e636560601b60448201526064016101fe565b6104bf6001600160a01b03821633308661092f565b3360009081526001830160205260408120549003610513576002820180546001810182556000918252602082200180546001600160a01b031916331790556004830180549161050d83610b95565b91905055505b33600090815260018301602052604081208054859290610534908490610bae565b909155505033600090815260018084016020526040822042818301556003908101805460ff191690921790915583018054859290610573908490610bae565b909155505060038201543360009081526001840160205260409020546105a190670de0b6b3a7640000610bc1565b6105ab9190610bd8565b3360009081526001840160205260409020600201556105c861079d565b336000818152600184016020908152604091829020600201548251878152918201527f1449c6dd7851abc30abf37f57715f492010519147cc2652fbc38202c18a6ee9091015b60405180910390a2505050565b61062361096e565b6001600160a01b03821660009081527f57d46e9702633ba0957a07facf7593cb3892767d932b512aa03794e4a217d01e6020526040902060030154600080516020610c118339815191529060ff166106b15760405162461bcd60e51b81526020600482015260116024820152705374616b6572206e6f742061637469766560781b60448201526064016101fe565b80546106c7906001600160a01b031684846108cb565b826001600160a01b03167fdf29796aad820e4bb192f3a8d631b76519bcd2cbe77cc85af20e9df53cece0868360405161060e91815260200190565b6000808080600080516020610c11833981519152600381015460048083015483546040516370a0823160e01b8152309381019390935293945091926001600160a01b0316906370a0823190602401602060405180830381865afa15801561076d573d6000803e3d6000fd5b505050506040513d601f19601f820116820180604052508101906107919190610b7c565b93509350935050909192565b7f57d46e9702633ba0957a07facf7593cb3892767d932b512aa03794e4a217d02054600080516020610c11833981519152906000036107d95750565b60005b60028201548110156108c75760008260020182815481106107ff576107ff610bfa565b60009182526020808320909101546001600160a01b03168083526001860190915260409091206003015490915060ff16801561085457506001600160a01b038116600090815260018401602052604090205415155b156108b45760038301546001600160a01b038216600090815260018501602052604090205461088b90670de0b6b3a7640000610bc1565b6108959190610bd8565b6001600160a01b03821660009081526001850160205260409020600201555b50806108bf81610b95565b9150506107dc565b5050565b6040516001600160a01b0383811660248301526044820183905261092a91859182169063a9059cbb906064015b604051602081830303815290604052915060e01b6020820180516001600160e01b0383818316178352505050506109f7565b505050565b6040516001600160a01b0384811660248301528381166044830152606482018390526109689186918216906323b872dd906084016108f8565b50505050565b7fc8fcad8db84d3cc18b4c41d551ea0ee66dd599cde068d998e57d5e09332c131c600401546001600160a01b031633146109f55760405162461bcd60e51b815260206004820152602260248201527f4c69624469616d6f6e643a204d75737420626520636f6e7472616374206f776e60448201526132b960f11b60648201526084016101fe565b565b600080602060008451602086016000885af180610a1a576040513d6000823e3d81fd5b50506000513d91508115610a32578060011415610a3f565b6001600160a01b0384163b155b1561096857604051635274afe760e01b81526001600160a01b03851660048201526024016101fe565b6020808252825182820181905260009190848201906040850190845b81811015610aa95783516001600160a01b031683529284019291840191600101610a84565b50909695505050505050565b80356001600160a01b0381168114610acc57600080fd5b919050565b600060208284031215610ae357600080fd5b610aec82610ab5565b9392505050565b600060208284031215610b0557600080fd5b5035919050565b60008060408385031215610b1f57600080fd5b610b2883610ab5565b946020939093013593505050565b634e487b7160e01b600052601160045260246000fd5b81810381811115610b5f57610b5f610b36565b92915050565b600081610b7457610b74610b36565b506000190190565b600060208284031215610b8e57600080fd5b5051919050565b600060018201610ba757610ba7610b36565b5060010190565b80820180821115610b5f57610b5f610b36565b8082028115828204841417610b5f57610b5f610b36565b600082610bf557634e487b7160e01b600052601260045260246000fd5b500490565b634e487b7160e01b600052603260045260246000fdfe57d46e9702633ba0957a07facf7593cb3892767d932b512aa03794e4a217d01da2646970667358221220637353738a9c0caf1362de4e4f4fb265cbdda14f67ec5a6117ddae3d4863f28964736f6c63430008140033",
  "linkReferences": {},
  "deployedLinkReferences": {}
}